:10000000F8FF002011040000D9380000D9380000A2
:10001000D9380000D9380000D9380000D93800009C
:10002000D9380000D9380000D9380000D93800008C
:10003000D9380000D9380000D9380000D93800007C
:10004000D9380000D9380000D9380000D93800006C
:10040000FFFFFFFFFFFFFFFFFFFFFFFFFEFFFFFFFD
:1004100062B606F01DF8FEE72DE9F04FA1B0824666
:10042000002017461D4602910B900DF1440B6FF012
:1004300000490AE017F8011B0298D04702900028F3
:1004400000F0A2820B98401C0B90387808B90B98EA
:100450009CE22528EED10020059006900790089098
:1004600009900A9001E040F0010017F8011F2029CF
:10047000F9D023290DD02B2904D02D2906D03029DD
:100480000AD00CE040F0020080B2EEE740F0040039
:10049000FAE740F00800F7E740F01000F4E72A29F7
:1004A0000ED12968296051F8042B2960002A0D9289
:1004B00004D5514240F004000D9180B27F1C11E040
:1004C00000210D9109E00D99494505D001EB81030B
:1004D00002EB430130390D917F1C3A78A2F13001D3
:1004E0000A29F0D339782E2903D04FF0FF310C912F
:1004F0001DE017F8011F2A2907D1296829607F1CF0
:1005000051F8042B29600C9211E000210C9109E0B4
:100510000C99494505D001EB810302EB43013039C9
:100520000C917F1C3A78A2F130010A29F0D3ADF882
:1005300038000FF6B820397800F076FD08B117F8CA
:10054000010B8DF83A009DF83A00682802BF39780F
:100550006829622005D06C2804BF38786C2803D144
:1005600071208DF83A007F1C11A8049017F8014BF8
:10057000B4F1250024D02038022840F2C580133879
:1005800000F0EB800B3800F04F81401E00F024811A
:10059000401E022840F2B880001F00F01D81401F5D
:1005A00000F08380401E00F0D880401E29D0C01E7D
:1005B0000CD0801E00F0D180C01E00F0CE803DE146
:1005C0000120059025208DF8440043E1286828602B
:1005D00050F8044B28600394DDF83080B8F1000F28
:1005E00004D5204600F02CFD804607E0424600215D
:1005F000204600F041FD08B1A0EB0408CDF81880BA
:1006000028E1296829604FF03C0851F8040B296063
:100610000021CDE9000111A80390DDE90001049C4F
:1006200011B908B90C9AC2B10206120FA0EB02125E
:100630003032D2B23A2AA8BF27320009A8F101030A
:1006400040EA017009091A5508BF0028984604D0ED
:10065000039A08EB04039A42E6D308EB04000390E4
:10066000C8F13C010C980691814209DA401A0890C1
:100670004FF6EF71BDF838000840ADF83800E9E0FA
:10068000002840F1E7809DF8380000F014001028A1
:1006900040F0E0800D98059A801A089A801A401A56
:1006A0000128C0F2D7800890D4E09DF83A00622873
:1006B0001AD0682806D06A280CD06C281CD0712863
:1006C00008D019E02868286050F8041B28600B98AF
:1006D0000880BFE02868286050F8042B28600B9839
:1006E000C117C2E90001B5E02868286050F8041B72
:1006F00028600B980870ADE02868286050F8041B4B
:1007000028600B980860A5E02868C01D20F007024B
:100710002A60D2E9000108322A60CDE900010029EF
:1007200003D5012005902D200CE0BDF8380081078D
:1007300003D5012005902B2004E0C00704D501203B
:10074000059020208DF84400059911A80818039001
:10075000214600A800F0D8F97CE09DF83A206C2AE8
:100760000DD0712A18BF6A2A09D12868C01D20F04F
:1007700007032B60D3E9000108332B6005E02968EB
:10078000296051F8040B29600021CDE90001682A95
:1007900008BF80B207D0622A08BFC0B203D0742A53
:1007A00018BF7A2A02D10021CDE900019DF8380056
:1007B000000730D5DDE90001002908BF00282AD054
:1007C00044F02000782826D130208DF844008BF8A2
:1007D0000140022005901EE09DF83A00294600F0F5
:1007E000D8F8CDE90001002904DA0598411C0591EB
:1007F0002D210EE0BDF83800810704D50598411C75
:1008000005912B2105E0C00705D50598411C0591F0
:10081000202100F80B10059911A808180390214613
:1008200000A800F0EDF815E0012005902868286088
:1008300050F8041B28608DF844100BE0012005904F
:100840002520002C8DF8440004D00598411C05910A
:1008500000F80B400D980599401A0899401A06991E
:10086000401A0999401A0799401A0A99A0EB010801
:100870009DF8380040070FD420208DF84000002458
:1008800008E0012310AA00A9504600F098FB0028B8
:100890007AD1641C4445F4DB059C11AE0AE016F8DD
:1008A000011B0298D047029000286DD00B98401C85
:1008B0000B90641E002CF2D130208DF840000026F1
:1008C000089C08E0012310AA00A9504600F077FB1D
:1008D000002859D1761CA642F4DB069C039E0AE050
:1008E00016F8011B0298D047029000284CD00B98B4
:1008F000401C0B90641E002CF2D130208DF840007B
:100900000026099C07E0012310AA00A9504600F028
:1009100056FBC8BB761CA642F5DB03980699079CDC
:100920000E1809E016F8011B0298D047029058B340
:100930000B98401C0B90641E002CF3D130208DF8D6
:10094000400000260A9C07E0012310AA00A9504697
:1009500000F035FBC0B9761CA642F5DB9DF83800E7
:1009600040077FF572AD20208DF84000002400E0A4
:10097000641C4445BFF669AD012310AA00A9504686
:1009800000F01DFB0028F3D04FF0FF3021B0BDE890
:10099000F08F622826D068281DD06A2808D06C28DD
:1009A00027D0712804D0742823D07A280CD020E0D6
:1009B0000868C01D20F007000860D0E90023083057
:1009C00008601946104670470A680A6052F8040B1E
:1009D0000A60002170470A680A6052F8040B0A6036
:1009E00000B20BE00A680A6052F8040B0A6040B2D9
:1009F00004E00A680A6052F8040B0A60C1177047E5
:100A00002DE9FA4E05460A462F696F2A08BF0824C9
:100A100005D041F02000782814BF0A2410243C2679
:100A2000D5E90001642A18BF692A81468A4605D1A2
:100A3000002903DAD9F100096AEB4A0ABAF1000F7A
:100A400008BFB9F1000F0CD1286B50B9082C36D172
:100A500095F83800000732D530203B2687F83B0058
:100A60002DE0E31748465146224600F031FBA4FB37
:100A70000023A9EB02023032D2B2A6F1010B3A2ACE
:100A80005E4603DB9DF80030513B9A1881465FEAD1
:100A9000010A0BF8072008BFB9F1000F03D0E8687E
:100AA000F1198842DDD3082C09D195F838000007E8
:100AB00005D5F05D302802D0761E3020F055C6F105
:100AC0003C00A861F119E960296B884208DA081A2C
:100AD00028624FF6EF71288F08402887BDE8F38E13
:100AE00000290ED595F8381001F01401102908D10D
:100AF000696B6A69891A2A6A891A081A0128A8BFC3
:100B00002862BDE8F38E00002DE9F34F8BB0D0E9E9
:100B10000089006B002801AF48BF062005D404BF40
:100B200041F02000672802D101200B99086340F2B0
:100B3000FF720B984168C1F30A50904220D108031C
:100B400002BF0B98006800280AD10B990320886126
:100B50009DF8300061381A2858D30FF2A44109E0FB
:100B60000B99032088619DF8300061381A284AD318
:100B70000FF284410B98C068032200F021FB00E1D2
:100B8000012807DA0B9800F056FB012802DB00234E
:100B90000026EDE00B9ADFF854B1526840F2FE31C6
:100BA00061F31E520B994A6040F2FE31461A4046EC
:100BB00049460022002300F05FFB38BF89F000495E
:100BC00036B247F297507043494990FBF1F636B27E
:100BD000C6F10707012F92461BDBF80707D55246DF
:100BE0005B464046494600F05FFB804689467F10E1
:100BF0005046594652465B4600F056FB002F82464F
:100C00008B46EAD126E00FF2EC31B3E70FF2EC317C
:100C1000B0E77F420024374D12E0F80707D552466F
:100C20005B462046294600F03FFB04460D467F10F8
:100C30005046594652465B4600F036FB82468B468C
:100C4000002FEAD14046494622462B4600F0FEFBE3
:100C5000804689469DF830000B99DFF89CB0096BFF
:100C600040F02005662D0CBF06F10A00062047184B
:100C7000142FA8BF132730208DF804000DF10504B0
:100C8000012F3BDB4046494600F01AFD014604F1C6
:100C9000080204234FF00A0CB1FBFCFC0CEB8C04A3
:100CA000A1EB4401303102F8011D0A21BCFBF1FE29
:100CB0000EEB8E04ACEB440430345B1E714602F83C
:100CC000014DE7D1083F012F02F10804D8DB00F005
:100CD00017FD02460B464046494600F01FFD002224
:100CE0005B4600F0E1FA80468946CBE700002440ED
:100CF000A08601000000F03F84D797410DF1050068
:100D0000201A0DF1050702E0401E761E7F1C39787F
:100D10003029F9D0662D02D136B2711C03E0652D61
:100D20000CBF012100210B9A126B8B181BB2984249
:100D3000B8BF03461BB219001AD4814204DAC85D59
:100D40003528A8BF392000DA3020CA19521E00E029
:100D50005B1E12F80159491E8542F9D0392802D18B
:100D6000C85D401CC855002902D57F1E5B1C761C3F
:100D700036B29DF830100B9800961BB23A4600F040
:100D800003F80DB0BDE8F08F2DE9F04786B00646B8
:100D90008A4690461D4600F09EFD406A376B90F8EB
:100DA0000090012D02DA01250FF258284AF02000A8
:100DB000BDF93840662808BF641C13D0672840F08E
:100DC000888014F1040F73DBBC4271DA96F83800A6
:100DD000641C000702D4BD42B8BF2F4624B23F1B9B
:100DE00048BF002724B2F068B169012C21DA4A1CFF
:100DF00030230B54012F03DA96F83810090702D577
:100E000002F80090521CE742B8BF7C4224B2614213
:100E1000E719AF42B261B8BF3D4671622DB2F561CC
:100E20002A46B3694146181800F0CAF9781BB06227
:100E3000AEE00818A54216DA2A46414600F0C0F98D
:100E4000B1696918601BB161012F706203DA96F80D
:100E50003800000705D5F06801F80090F069401CE3
:100E6000F061B76294E02246414600F0A9F9B0690A
:100E700020182D1B012F03DA96F83810090703D527
:100E8000F16800F80190401CB0612DB2AF42B8BFCC
:100E90003D46F068B3692DB22A4604EB08011818E4
:100EA00000F08EF9B0692818B061781B70626FE0AD
:100EB000BD4204DA96F83810090758BF2F467F1E46
:100EC00048BF0027BAF1670F0CBF4FF0650A4FF01B
:100ED000450AB169F06818F8013B0B544A1C012F10
:100EE00005DA96F83810090758BFB26115D502F82F
:100EF0000090531C012FB3610FDB6D1E2DB2AF426A
:100F0000B8BF3D462DB22A464146181800F058F9A0
:100F1000B0692818B061781B7062F068B16901EBA4
:100F20000008200008F801AB03D42B2008F8010BBF
:100F300003E02D2108F8011B6442002502AF08E000
:100F40000A2200A800F0E0FC019807F8010B6D1CD4
:100F5000009C21B20129F3DA022D06DA4AF02000C2
:100F6000652804BF302008F8010B4DB9302008F87F
:100F7000010B07E06D1E02A8285C303008F8010B59
:100F8000012DF7DAF068B1690818A8EB0000F061EC
:100F900096F8380000F0140010280DD17069B1697E
:100FA0000818716A0818F1690818B16A0818716B95
:100FB0008842BCBF081A306206B0BDE8F087F8B5B9
:100FC00004460D4616461F46002004E0E86A401C11
:100FD000E8627F1E002047B116F8011BA868A047F1
:100FE000A8600028F2D14FF0FF30F2BD686A6C743F
:100FF0007A4C00006E616E004E414E00696E6600D4
:10100000494E4600300050F8041B61B150F8042BE3
:10101000D30744BFA9F101039A180023091F42F81E
:10102000043BFAD1EFE770470278C9B28A421AB19D
:101030001CBF10F8012FF9E718BF0020704700000F
:1010400000F10103810704D010F8011B89B1810769
:10105000FAD10268B2F10131914311F0803F04BF2F
:1010600050F8042FF6E710F8011B11B110F8011B1E
:10107000FBE7C01A70470000C9B2830706D0521EB2
:1010800022D310F8013B9942F7D11FE0083A13D35D
:1010900002F1040241EA012141EA014150F8043B16
:1010A000121F21BF4B40A3F1013C2CEA030C1CF0A2
:1010B000803FF3D0C9B2001F083210F8013B521E26
:1010C00028BF91EA030FF8D818BF0120401E7047CF
:1010D0001B4213D1094236D12AB18446B0FBF2F04B
:1010E00002FB10C2704700F017BCFCD300220023A3
:1010F00070470B000200002100207047904271EB06
:10110000030CF6D370B5B1FA81F4B3FA83F52C1B56
:10111000A340C4F1200532FA05F63343A2405FF044
:101120000046E64002E05B085FEA3202841A71EB97
:10113000030524BF204629467641F4D302000B0064
:101140003000002170BD012ACFD970B5140C20D019
:10115000B1FA81F4B2FA82F5C4F120046419B4F151
:101160002006D6D3B2405FF00044F440002502E0F0
:1011700052085FEA3303C61A71EB020E24BF3046F1
:10118000714664416D41F3D302000B002000290039
:1011900070BD0C46B1FBF2F102FB11452D0445EA8E
:1011A0001045B5FBF2F402FB145580B240EA054548
:1011B000B5FBF2F002FB105240EA044070BD0000A3
:1011C00062B38B0708D0521E11F8013B00F8013BB7
:1011D00000F024808B07F6D1830740F0208000BF09
:1011E000103A07D330B4B1E83810103AA0E83810FC
:1011F000F9D230BC530724BFB1E80810A0E80810AA
:1012000044BF51F8043B40F8043BD20724BF31F8F7
:10121000022B20F8022B44BF0B7803707047083A6A
:1012200007D3B1E80810083A40F8043B40F804CB73
:10123000F7D25307E4E730B4436803F000420121DA
:101240001B031B0B436004BF0368002B08D10DE098
:101250000368DD0F45EA440444605B000360491EF7
:101260004468E302F4D523031B0B436043681A432D
:101270004260084630BC70474FF4001C1CEB410F25
:1012800094BF1CEB430F09E041EA030C50EA4C0CFD
:1012900052EA0C0C03D2994208BF9042704714BF27
:1012A0008B42824270470000B0B581EA030C0CF01B
:1012B000004C40F2FF7515EA11541DBF15EA135793
:1012C000AC42AF4239E0E41923EA455343F48013BA
:1012D000C90241F0004141EA505EC7021100A7FB7C
:1012E000020200284FF00000EEFB01204FF0000149
:1012F000E3FB072118BF42F00102401800214941D9
:10130000E3FB0E01A4F580640F0302D252004041BA
:10131000494154F101046CDD470872F1004250F17B
:10132000000051EB0451A1F580115CBF41EA0C01B2
:10133000B0BD4CEA05510020B0BD05EA1357AC42E0
:1013400014BFAF4241E050EA410E1CBF52EA430EC7
:1013500002E061460020B0BD24423C441BD15FEA5C
:10136000070EF6D0090302BF01460020AEF1140EAD
:10137000B1FA81F7AEEB070401FA07FE0C37C7F1AB
:10138000200100FA07F7C8404EEA000E23EA455351
:1013900043F48013A2E733F00043B3FA83F704BFAA
:1013A000B2FA82FE77440B3FE41BB7F1200E2FBF49
:1013B00002FA0EF3BB40C7F1200E22FA0EFE38BF30
:1013C00043EA0E03BA40641C82E750EA410E14BFA0
:1013D00052EA430E6FF000014FF4001717EB430F72
:1013E0008ABF194617EB410FB5E74CEA05510020BB
:1013F000B0BDD4F10104B4F120070FDAC4F1200725
:10140000520828BF42F0010210FA07F501FA07F767
:10141000E1BF2A43E0403843E1400FE0352C98DC3F
:10142000C7F1200452EA400220FA07F218BF42F046
:10143000010231FA07F0A1400A43002172F1004293
:1014400050F1000051EB0C01B0BD0000F0B540F2CE
:10145000FF7581EA030C0CF0004C15EA11541DBF16
:1014600015EA1357AC42AF42E5E0BC41C1F31301AA
:10147000C3F31303801A994143F4801304D2641E0A
:101480004000494180185941C90241EA5051B1FB1D
:10149000F3F603FB1611A2FB0675D7EBC020A9419A
:1014A00002D2761E80185941C90241EA5051B1FB5F
:1014B000F3FE03FB1E11A2FB0E75D7EBC020A94162
:1014C00003D2AEF1010E80185941890241EA9051D0
:1014D000760546EA8E2EB1FBF3F603FB1611A2FB4E
:1014E0000675D7EB8020A94102D2761E801859419B
:1014F000C90241EA50514EEA060EB1FBF3F603FB76
:101500001611A2FB0675D7EBC020A94102D2761EA8
:1015100080185941C90241EA5051B1FBF3F703FB6E
:101520001711A2FB0735D3EBC020A94167F10007D3
:101530000CBF004247F0010766F3D5274FEA1E3182
:10154000B80814F5806412DDBD0775F1004250EB58
:101550000E5051EB045111F5801F5CBF41EA0C01A4
:10156000F0BD4CF07F6141F0E0410020F0BDBD07CF
:101570006D0840EA0E5041F48011D4F10104B4F139
:1015800020060ADAC4F120060200E04001FA06F360
:10159000E1401843B24015430EE0342C13DCC6F191
:1015A000200445EA40056D0820FA06F2154321FAA9
:1015B00006F0A1400D43002175F1004250F10000FA
:1015C00051EB0C01F0BD00205FEA0C01F0BDCFB97A
:1015D00092185B41B3FA83F704BFB2FA82F6BF19DF
:1015E0000B3FB7F120062FBF02FA06F3BB40C7F14D
:1015F000200622FA06F638BF3343BA401CB1E4197C
:10160000641E33E77F4231F00041B1FA81F404BF38
:10161000B0FA80F6A4190B3CB4F120062FBF00FAF3
:1016200006F1A140C4F1200620FA06F638BF314386
:10163000A0403C1B1AE7AC421ABF05EA1357AF4261
:1016400012E050EA41061CBF52EA4306BFE750EAE7
:101650004107304661461CBF41EA0551F0BD52EAE0
:10166000430C08BFC143F0BD00204FF4001616EB39
:10167000410F98BF16EB430F08BF16EB410F24BF75
:10168000C14305E016EB430F0CBF61464CEA055120
:10169000F0BD0000F446400D40EAC120490006D2EA
:1016A00000F014F8004248BF6FF00040604700F0BF
:1016B0000DF84FF0004188428CBF08464042604719
:1016C000400D40EAC120490080F00D8040F000400C
:1016D000490DA1F58061491C05D4D1F11F0154BF0A
:1016E000C840C01770474FF000007047010040F13C
:1016F0000980F446404200F005F851F0004160478F
:10170000010000BF09D0B0FA80F18840C91CC1F5C2
:101710008461090501EBD0214005704770B44FF09A
:10172000004591EA030F44BF6B4000F001B900BFD0
:10173000841A71EB030604D26E40001BB1411219EA
:1017400073414FF4001C1CEB410F34BF7CEB43068C
:1017500084E00C0DA4EB1356362E7DDC012E43DC09
:1017600045EAC32343EA525312BFD20292025B08F6
:10177000240545EAC12141EA5051D2EBC0209941EC
:1017800025D407D1B0FA80F610FA06F164D0002013
:10179000203608E0B1FA81F6B140C6F1200220FA05
:1017A00002F21143B0404FEAF474B4EB465434F003
:1017B00001064FEA74040AD8D6F50016760D04F037
:1017C0000044F04061FA06F25040F1404840C00A3F
:1017D00040EA415021F0004128BF5FEA500550F136
:1017E000000044EBD12137E045EAC323DB0A45EA98
:1017F000C121C90AB6F120050EDD42EA0242120CEF
:10180000C5F1200603FA06F6EB4042EA06056D42F2
:10181000984161F100010DE062FA06F5F240554091
:1018200063FA06FC82EA0C02F3405A406D42904192
:1018300061EB030111F4801F05D1641E620502D023
:101840006D004041494121F48011430875F1004386
:1018500050F1000041EB045170BC70471CEB410F8C
:1018600015D223F0004352EA43060BD04FEA4C0C4A
:10187000BCEB410F04D80C0D661E342EB7DDEBE730
:10188000801A994150EA410608BF0021E4E708BFE9
:101890001CEB430F28BF6FF00001DDE780B5134854
:1018A00000F0B0F80FF24801016041608160C16052
:1018B0000161416181610FF23C0242628162C16259
:1018C000016341630FF2300282630FF23402C2639C
:1018D0000164416401BD10B5044800F093F804466A
:1018E000206808B9FFF7DAFF204610BD7C10FF1F03
:1018F000000000002E00000066616C7365000000AF
:10190000747275650000000091FBF2F303FB121185
:10191000C0E90031704700007047000070B44FF01C
:10192000004591EA030C44BF6B40FFF701BF00BFC5
:10193000841A71EB030603D2001BB14112197341E3
:101940004FF4001C1CEB410F34BF7CEB430443E01D
:101950000C0DA4EB1356352E50DC45EAC323DB0AED
:1019600045EAC121C912B6F120050DDD63FA05F67D
:10197000EB4086EA0305124218BF45F00105C01886
:1019800051F100010CD213E062FA06F5F240554025
:10199000F3415A40B340F3405A408018594107D3AD
:1019A00049085FEA30005FEA350528BF45F00105C8
:1019B00001F58011420875F1004250F1000041EB41
:1019C000045170BC4FF4001C1CEB410F38BF704732
:1019D0000020090D090570471CEB410F10D252EA97
:1019E00043060BD0BCEB410F05D80C0DAB43661E74
:1019F000342EB5DD02E0AB438018594170BC70470E
:101A000070BC704770470000D6010000D60100008E
:101A10000700000000000000000000000000F0C10E
:101A20000000A0C1000020C1000000000000204113
:101A30000000A0410000F0410000C0C0000080C0D4
:101A4000000000C0000000000000004000008040D6
:101A50000000C0406666E63F9A99F93F6666064018
:101A6000000010409A99194033332340CDCC2C40CC
:101A70000600000006000000050000000400000051
:101A80000400000004000000040000000600000044
:101A90000500000004000000030000000200000038
:101AA0000300000004000000050000000400000026
:101AB000020000000100000001000000030000001F
:101AC000040000000400000003000000010000000A
:101AD00000000000010000000300000004000000FE
:101AE00004000000030000000100000001000000ED
:101AF00002000000040000000500000004000000D7
:101B000003000000020000000300000004000000C9
:101B100005000000060000000400000004000000B2
:101B200004000000040000000500000006000000A2
:101B30000600000000B0034000B00B4000000000B1
:101B40000000000000000000000000000000000095
:101B5000000000000000000000004E6F6E4D617339
:101B60006B61626C650000000048617264466175DB
:101B70006C740000000000004D656D4D616E616782
:101B8000656D656E7400004275734661756C740016
:101B900000000000000055736167654661756C7454
:101BA0000000000000000000000000000000000035
:101BB0000000000000000000000000000000000025
:101BC0000000000000000000000000000000000015
:101BD0000000000000000000000000000000000005
:101BE00000535643616C6C000000000000000000D0
:101BF00044656275674D6F6E69746F720000000016
:101C0000000000000000000000000000000050651F
:101C10006E6453560000000000000000005379730A
:101C20005469636B0000000000000000444D413027
:101C30000000000000000000000000444D413100A1
:101C400000000000000000000000444D4132000090
:101C5000000000000000000000444D41330000007F
:101C60000000000000000000444D4134000000006E
:101C700000000000000000444D413500000000005D
:101C8000000000000000444D41360000000000004C
:101C90000000000000444D4137000000000000003B
:101CA00000000000444D413800000000000000002A
:101CB000000000444D413900000000000000000019
:101CC0000000444D413130000000000000000000E1
:101CD00000444D41313100000000000000000000D0
:101CE000444D41313200000000000000000000447B
:101CF0004D41313300000000000000000000444D61
:101D000041313400000000000000000000444D415B
:101D1000313500000000000000000000444D415F2C
:101D20004572726F720000000000004D434D0000CC
:101D3000000000000000000000004654464C000077
:101D4000000000000000000000526561645F436F06
:101D50006C6C6973696F6E004C56445F4C5657004B
:101D6000000000000000004C4C5700000000000084
:101D70000000000000005761746368646F67000032
:101D80000000000000524E4700000000000000006C
:101D90000000000049324330000000000000000055
:101DA0000000004932433100000000000000000044
:101DB0000000535049300000000000000000000007
:101DC00000535049310000000000000000000000F6
:101DD00053504932000000000000000000000043A2
:101DE000414E305F4F525F4D425F62756600434126
:101DF0004E305F4275735F4F666600000043414E90
:101E0000305F4572726F72000000000043414E3037
:101E10005F54785F5761726E696E6743414E305F01
:101E200052785F5761726E696E6743414E305F57FB
:101E3000616B655F55700000005265736572766571
:101E40006435310000000000526573657276656488
:101E50003532000000000043414E315F4F525F4D6C
:101E6000425F6275660043414E315F4275735F4F5A
:101E7000666600000043414E315F4572726F72002A
:101E80000000000043414E315F54785F5761726E2D
:101E9000696E6743414E315F52785F5761726E6978
:101EA0006E6743414E315F57616B655F557000004F
:101EB0000052657365727665643539000000000074
:101EC0005265736572766564363000000000005517
:101ED000415254305F52585F545800000000554141
:101EE0005254305F455252000000000000554152EC
:101EF00054315F52585F545800000000554152540D
:101F0000315F4552520000000000005541525432EA
:101F10005F52585F54580000000055415254325FE0
:101F200045525200000000000055415254335F52A8
:101F3000585F54580000000055415254335F4552D9
:101F40005200000000000055415254345F52585F67
:101F500054580000000055415254345F455252001D
:101F6000000000000055415254355F52585F5458EC
:101F70000000000055415254355F455252000000A8
:101F80000000004144433000000000000000000059
:101F90000000414443310000000000000000000048
:101FA00000434D5030000000000000000000000021
:101FB000434D5031000000000000000000000043CD
:101FC0004D503200000000000000000000004654A8
:101FD0004D30000000000000000000000046544D9D
:101FE00031000000000000000000000046544D32A7
:101FF0000000000000000000000000434D540000FD
:1020000000000000000000000000525443000000E7
:1020100000000000000000000052657365727665E4
:1020200064383300000000005049543000000000C4
:102030000000000000000050495431000000000082
:102040000000000000005049543200000000000071
:102050000000000000504954330000000000000060
:10206000000000005044423000000000000000006A
:102070000000005553423000000000000000000046
:10208000000055534244434400000000000000009B
:1020900000454E45545F313538385F54696D65727F
:1020A000454E45545F5472616E736D69740000450E
:1020B0004E45545F52656365697665000000454E84
:1020C00045545F4572726F72000000000049325340
:1020D00030000000000000000000000053444843AE
:1020E00000000000000000000000004441433000F8
:1020F00000000000000000000000444143310000E7
:1021000000000000000000000054534930000000AF
:1021100000000000000000004D43470000000000E8
:10212000000000000000004C5054696D6572000012
:1021300000000000000052657365727665643130FE
:102140003200000000504F525441000000000000D7
:1021500000000000504F52544200000000000000F8
:10216000000000504F5254430000000000000000E7
:102170000000504F525444000000000000000000D6
:1021800000504F52544500000000000000000000C5
:102190005265736572766564313038000000005214
:1021A00065736572766564313039000000005265F0
:1021B00073657276656431313000000000526573DA
:1021C00065727665643131310000000052657365D7
:1021D00072766564313132000000005265736572B9
:1021E00076656431313300000000526573657276A4
:1021F00065643131340000000052657365727665A4
:102200006431313500000000526573657276656493
:1022100031313600000000526573657276656431B5
:1022200031370000000052657365727665643131A4
:10223000380000000052657365727665643131398B
:1022400000000000008003400090034000800B402D
:1022500000F00F4040F00F4080F00F40C0F00F4002
:1022600000F10F40F0000A1D300018003200180184
:10227000600018186400181A6E00181F78001318F0
:102280007D00131A8200131C8C000E1296000E158E
:10229000A0000E18AA000E1BB4000E1EC8000C1CD5
:1022A000E1000B1EFA000A1F00010908009004401B
:1022B00000A0044000B0044000C0044000D004402E
:1022C00000A0064000B0064000C0064000D0064016
:1022D00000A00E4000B00E4033343536376D4E4FFF
:1022E0000E0F1011020401011810FF1F6810FF1FCC
:1022F0001810FF1F1810FF1F1810FF1F290DFF1FB8
:10230000100DFF1F00000000000000000000000092
:1023100000000000000000000000000000000000BD
:10232000000000002DE9F04F8BB0040000A8002150
:10233000002206C0083802A80021002206C0083882
:1023400004A81C2100F0C0FB0025002600275FF038
:1023500000095FF0000894F9000082465046032807
:1023600000F03382052800F04681072840F0BE8245
:102370006068E16800F0ACFB05D25FF07E50009031
:102380000020060088E06068216900F0A1FB10D2FF
:102390002069616800F0AEFB83462069E16800F0C7
:1023A000A9FB0100584600F019FC0090002006002F
:1023B00072E06068616900F08BFB10D2606961684F
:1023C00000F098FB83466069216900F093FB0100EF
:1023D000584600F003FC0090012006005CE06068B5
:1023E000A16900F075FB10D2A069616800F082FB62
:1023F0008346A069616900F07DFB0100584600F04A
:10240000EDFB00900220060046E06068E16900F004
:102410005FFB10D2E069616800F06CFB8346E06905
:10242000A16900F067FB0100584600F0D7FB00905F
:102430000320060030E06068216A00F049FB10D2FA
:10244000206A616800F056FB8346206AE16900F06B
:1024500051FB0100584600F0C1FB0090042006002B
:102460001AE06068616A00F033FB10D2606A61684C
:1024700000F040FB8346606A216A00F03BFB0100EC
:10248000584600F0ABFB00900520060004E05FF02A
:102490007E50009006200600009800F01DFC02000F
:1024A0000B000020DFF80016FFF738F900F03CFCC5
:1024B0000190A068A16A00F00BFB05D25FF07E508E
:1024C00002900020070088E0A068E16A00F000FBAD
:1024D00010D2E06AA16800F00DFB8346E06AA16AB1
:1024E00000F008FB0100584600F078FB0290002045
:1024F000070072E0A068216B00F0EAFA10D2206BAE
:10250000A16800F0F7FA8346206BE16A00F0F2FA66
:102510000100584600F062FB0290012007005CE0D9
:10252000A068616B00F0D4FA10D2606BA16800F073
:10253000E1FA8346606B216B00F0DCFA010058463B
:1025400000F04CFB02900220070046E0A068A16B5F
:1025500000F0BEFA10D2A06BA16800F0CBFA83465F
:10256000A06B616B00F0C6FA0100584600F036FB24
:1025700002900320070030E0A068E16B00F0A8FAA9
:1025800010D2E06BA16800F0B5FA8346E06BA16B56
:1025900000F0B0FA0100584600F020FB0090042043
:1025A00007001AE0A068216C00F092FA10D2206CAB
:1025B000A16800F09FFA8346206CE16B00F09AFA64
:1025C0000100584600F00AFB00900520070004E0D7
:1025D0005FF07E50029006200700029800F07CFB1E
:1025E00002000B000020DFF8C014FFF797F800F09E
:1025F0009BFB03907AE16068E16800F069FA05D21C
:102600005FF07E500090002006005CE06068216969
:1026100000F05EFA10D22069616800F06BFA834620
:102620002069E16800F066FA0100584600F0D6FA29
:1026300000900020060046E06068616900F048FAFA
:1026400010D26069616800F055FA834660692169BB
:1026500000F050FA0100584600F0C0FA0090012046
:10266000060030E06068A16900F032FA10D2A0697B
:10267000616800F03FFA8346A069616900F03AFAA8
:102680000100584600F0AAFA0090022006001AE065
:102690006068E16900F01CFA10D2E069616800F03E
:1026A00029FA8346E069A16900F024FA010058463E
:1026B00000F094FA00900320060004E05FF07E50E2
:1026C000009004200600009800F006FB02000B00BA
:1026D0000020DFF8D413FFF721F800F025FB01906C
:1026E000A068A16A00F0F4F905D25FF07E50029074
:1026F000002007005CE0A068E16A00F0E9F910D270
:10270000E06AA16800F0F6F98346E06AA16A00F089
:10271000F1F90100584600F061FA0290002007002C
:1027200046E0A068216B00F0D3F910D2206BA168BD
:1027300000F0E0F98346206BE16A00F0DBF901006C
:10274000584600F04BFA02900120070030E0A068E4
:10275000616B00F0BDF910D2606BA16800F0CAF99E
:102760008346606B216B00F0C5F90100584600F00C
:1027700035FA0290022007001AE0A068A16B00F071
:10278000A7F910D2A06BA16800F0B4F98346A06B42
:10279000616B00F0AFF90100584600F01FFA02909B
:1027A0000320070004E05FF07E5002900420070041
:1027B000029800F091FA02000B000020BA49FEF7DF
:1027C000ADFF00F0B1FA039090E06068E16800F0BE
:1027D0007FF905D25FF07E5000900020060030E0C7
:1027E0006068216900F074F910D22069616800F016
:1027F00081F983462069E16800F07CF901005846C0
:1028000000F0ECF90090002006001AE060686169B1
:1028100000F05EF910D26069616800F06BF98346E0
:102820006069216900F066F90100584600F0D6F9A8
:1028300000900120060004E05FF07E50009002202E
:102840000600009800F048FA02000B0000209649AC
:10285000FEF764FF00F068FA0190A068A16A00F03A
:1028600037F905D25FF07E5002900020070030E07B
:10287000A068E16A00F02CF910D2E06AA16800F0CB
:1028800039F98346E06AA16A00F034F9010058463C
:1028900000F0A4F90290002007001AE0A068216B64
:1028A00000F016F910D2206BA16800F023F98346DE
:1028B000206BE16A00F01EF90100584600F08EF925
:1028C00002900120070004E05FF07E500290022099
:1028D0000700029800F000FA02000B000020724985
:1028E000FEF71CFF00F020FA0390FFE7BAF10100A9
:1028F000864251DABAF1010087424DDA1C2000FB12
:10290000074010EB8600006E05000099029800F069
:1029100053FA04A951F8251000F0BAFA04A941F8B5
:1029200025001C2000FB074010EB8600406E0500D0
:102930000199029800F040FA04A951F8251000F01E
:10294000A7FA04A941F825001C2000FB074010EB62
:102950008600C06F05000099039800F02DFA04A9C5
:1029600051F8251000F094FA04A941F825001C2024
:1029700000FB074010EB8600D0F8800005000199AD
:10298000039800F019FA04A951F8251000F080FA14
:1029900004A941F8250070E0BAF1010086422AD16D
:1029A000BAF10100874226DA1C2000FB074010EB39
:1029B0008600006E05000099029800F0FDF904A958
:1029C00051F8251000F064FA04A941F825001C20F4
:1029D00000FB074010EB8600C06F050000990398CC
:1029E00000F0EAF904A951F8251000F051FA04A901
:1029F00041F8250041E0BAF1010086422ADABAF135
:102A00000100874226D11C2000FB074010EB860006
:102A1000006E05000099029800F0CEF904A951F863
:102A2000251000F035FA04A941F825001C2000FB10
:102A3000074010EB8600406E05000199029800F0F7
:102A4000BBF904A951F8251000F022FA04A941F8B5
:102A5000250012E01C2000FB074010EB8600006EF2
:102A600005000099029800F0A7F904A951F8251073
:102A700000F00EFA04A941F8250000208046D04558
:102A80000EDA04A850F8280014EB8801496C00F015
:102A900093F9494600F0FCF9814618F10108EEE788
:102AA00048460BB0BDE8F08F0000F03FF8B50400D9
:102AB0000D00160000276560A6602000FFF732FCBD
:102AC00007003800F2BD0000002200F023BA000029
:102AD0004FF0807C1CEB400F94BF1CEB410F05E0D6
:102AE00040EA010C5FEA4C0C01D28842704718BFE3
:102AF0008142704790EA010F44BF81F0004100F02D
:102B0000CFB900BF431A4FF000423EBF5340C01A36
:102B1000C91800BFD3095FEAD05C13EB400F34BF84
:102B2000B3EB410F40E07CEBD1530CD342EA0121DF
:102B300022D8D1EB402009D3400A28BF5FEA5001D8
:102B400040EBCC507047401A15D04002B0FA80F2EA
:102B5000521C9040400A4FEA3C23B3EB026384BF0F
:102B600000EB730007E040F400001A16DB07C2F127
:102B70000102D04018437047182BFCDC31FA03F2F5
:102B800002FA03F3591A38BF42F00102D2EB402097
:102B90003CBF4000ACF1010C5FEACC5CC20572F1B5
:102BA00000414CEB5020704713EB400F0FD24B000D
:102BB00009D0ACEBD153022B03DB4902172BDDDD2F
:102BC00070479143401A4300D5D10020704713EB62
:102BD000410FD0D36FF000007047000010B5FF2305
:102BE00013EAD0541DBF13EAD1529C429A4239E0F5
:102BF000A41ADA0780EA0103134042EA012142EAFB
:102C00000020421A3CBF641E01EB4202090AB2FBDB
:102C1000F1FE01FB1E221202B2FBF1F001FB1022B9
:102C20006EF30F201202B2FBF1FE4EEA00207F3459
:102C300006DDFE2C24DA53EA500050EBC45010BDE0
:102C4000D4F1020401FB1E2240F08071192C1DDC1E
:102C500021FA04F0C4F12004A140114371F10042B3
:102C6000584110BD9C421ABF03EAD1529A420FE06C
:102C700080EA010E0EF00043400004D0490016D156
:102C800043F0FF4010BD490008BFD343180010BDFA
:102C90009C4205D1D21AF7D001F00041484010BD46
:102CA0004A0212BF0846484000F0004010BD4AB931
:102CB0000902B1FA81F2914044B1A418C00140F078
:102CC00000409EE7C90141F0004152420002B0FAC3
:102CD00080F4A040141B94E75FF0FF0C1CEAD05175
:102CE00014BF614506E0C110400721F0E04101F149
:102CF0006051704779B900F0004100020AD0B0FA83
:102D000080FC00FA0CF001F16051A1EB0C5101EBD9
:102D1000D0214005704741020CBF40F4E0016FF044
:102D200000010020704700004FEAF17CBCF1E04C4C
:102D30002CBFBCF5001F11E05FEA4C0C34BFBCF1A6
:102D40007F5F2EE05FEA9C0C4FEA0C1C4FEA3C0CC4
:102D5000C10071F100414CEB50707047C90241EA6B
:102D60005051C00218BF41F0010141F000414FEA4B
:102D70006C50C0F10900212810D240EACC7CCCF183
:102D8000200C11FA0CF070F10040CCF1200C21FA6B
:102D90000CF00CF0004C40EB0C0070474FEACC708C
:102DA0007047490011F5001F04D84FEACC10FF30DE
:102DB000C0057047C8177047FF2212EAD05C1DBFDC
:102DC00012EAD153944593422BE09C44D30780EA06
:102DD00001021A4043EA002043EA0121A1FB00302E
:102DE000410038BF40007CF17F010BDBFE294ADA4D
:102DF0005B0842EAC15153EA006373F1004C51EBA6
:102E000010207047D1F1080CDCF120012FDB5B08AA
:102E100010FA01F10B4373F1004120FA0CF050411C
:102E2000704794451CBF02EAD153934280EA0102E5
:102E300002F000421DD0400019D0490017D05BB904
:102E4000634514D00902B1FA81F39940BCEB030C3D
:102E5000C00140F00040C1E70002B0FA80FC10FA67
:102E60000CF0B3EB0C0CC90141F00041B6E71000C7
:102E7000704740000AD0490008D010F1807F94BF0D
:102E800011F1807F02E042F0FF407047D04370476D
:102E900090EA010F44BF81F00041FFF733BE00BF4D
:102EA000421A3CBF801A89184FF0004CC0F3C75239
:102EB000FF2A24D0C1F3C75313B3D21AD2F1190396
:102EC00027DD4CEA01214CFA03F321EA0303D14048
:102ED000C20D4CEA0020401834BF20EA0C004CEA36
:102EE0005000D20553EA006373EB0C0C52EB102038
:102EF000420012F1807F38BF7047C00DC005704797
:102F0000490212BF9A4200EB5120F8E7D2F11703B1
:102F1000D9D5704700B500BF1300964694461039C6
:102F200028BFA0E80C50FAD85FEA417C28BF0CC04B
:102F300048BF40F8042BC90728BF20F8022B48BF20
:102F400000F8012B00BD000008210122DFF82C361B
:102F50001A600022DFF834361A600A00511ED2B21D
:102F6000002A15D0020604D50122DFF814361A60B3
:102F700003E00022DFF808361A600122DFF80C3681
:102F80001A6000BF0022DFF804361A604000E4E750
:102F90007047000008210022DFF8E0351A600022A7
:102FA000DFF8E8351A600A00511ED2B2002A15D0A7
:102FB000020604D50122DFF8C8351A6003E00022BA
:102FC000DFF8BC351A600122DFF8C0351A6000BF97
:102FD0000022DFF8B8351A604000E4E7704738B5E2
:102FE00004000D00B5F15000C0B2FFF7D3FFE4B20A
:102FF000200950F01000C0B2FFF7CCFF14F00F0012
:1030000050F00100C0B2FFF7C5FF31BD70B504003C
:1030100000200500EDB2082D17DAB5F15000C0B25E
:10302000FFF7B8FF0120FFF7B5FF1020FFF7B2FF51
:1030300000200600F6B2802E05DA2000C0B2FFF7AD
:1030400083FF761CF6E76D1CE4E770BD80B20028B4
:1030500009D04FF47A5211000A00511E92B2002A90
:10306000FAD1401EF2E7704780B5012201216320AA
:1030700000F0AAFA01220121652000F0A5FA012240
:103080000121642000F0A0FA01220121622000F059
:103090009BFA00220121612000F096FA0120DFF85E
:1030A000EC1408600020DFF80C1508600020DFF841
:1030B000081508603220FFF7C9FF0120DFF8F81477
:1030C0000860AE20FFF766FF0020FFF763FF1020C7
:1030D000FFF760FF4020FFF75DFF8120FFF75AFFF9
:1030E000CF20FFF757FFA120FFF754FFC820FFF7BD
:1030F00051FFA620FFF74EFFA820FFF74BFF3F2010
:10310000FFF748FFD320FFF745FF0020FFF742FFFE
:10311000D520FFF73FFF8020FFF73CFFD920FFF7C6
:1031200039FFF120FFF736FFDA20FFF733FF1220D7
:10313000FFF730FFDB20FFF72DFF4020FFF72AFFCE
:103140002020FFF727FF0220FFF724FF8D20FFF745
:1031500021FF1420FFF71EFFA420FFF71BFFA6206E
:10316000FFF718FFAF20FFF715FF0020FFF74EFF16
:1031700000210020FFF733FF01BD2DE9F8430400D3
:103180000D00160000275FF000085FF000095FFAED
:1031900089F919F80600002842D05FFA89F919F870
:1031A000060020380700E4B2792C02DB002004007E
:1031B0006D1C2900C9B22000C0B2FFF710FF00202B
:1031C00080465FFA88F8B8F1080F0BDADFF8EC03F5
:1031D000FFB2390151FA88F1085CFFF7B5FE18F12A
:1031E0000108EEE7691CC9B22000C0B2FFF7F7FE84
:1031F000002080465FFA88F8B8F1080F0CDADFF893
:10320000BC03FFB2390151FA88F10818007AFFF7C0
:103210009BFE18F10108EDE7083419F10109B6E742
:10322000BDE8F1832DE9F84304000D0016000027E6
:103230005FF000085FF001095FFA88F818F80600EF
:10324000002800F08D800020070001208146DFF873
:103250007003FFB2385C80281DDBDFF86403FFB227
:10326000385C5FFA88F818F80610884211D1DFF848
:103270005003FFB2381840785FFA88F818EB06015F
:103280004978884205D1FFB20E2017FB00F0814635
:1032900001E0BF1CDBE7E4B2772C02DB0020040076
:1032A0006D1C2900C9B22000C0B2FFF798FE1FFABA
:1032B00089F9B9F1010F2DD02900C9B22000C0B29F
:1032C000FFF78DFE00200700FFB20E2F0BDADFF8AC
:1032D000F4021FFA89F919F80000FFF735FE19F119
:1032E00001097F1CF0E7691CC9B22000C0B2FFF7DA
:1032F00076FE00200700FFB20E2F2DDADFF8C402A1
:103300001FFA89F919F80000FFF71EFE19F10109EB
:103310007F1CF0E718F101082900C9B22000C0B2F3
:10332000FFF75DFE00200700FFB2102F04DA002037
:10333000FFF70AFE7F1CF7E7691CC9B22000C0B284
:10334000FFF74DFE00200700FFB2102F04DA002027
:10335000FFF7FAFD7F1CF7E70E3418F102086BE760
:10336000BDE8F183F8B504000D0016000027FFB298
:10337000B85D00282AD0FFB2B85D802815DBFFB207
:10338000B85D8DF80000FFB2B81940788DF80100E3
:1033900000208DF8020000AA2900C9B22000C0B2A6
:1033A000FFF740FF0E34BF1CE1E7FFB2B85D8DF8B8
:1033B000000000208DF8010000AA2900C9B22000F9
:1033C000C0B2FFF7DAFE08347F1CD0E7F1BDF0B5DC
:1033D00083B004000D00160000A80021002206C0E2
:1033E000083836B2002E05D52D208DF8000036B2F3
:1033F000764202E02B208DF8000036B242F21070C7
:1034000096FBF0F08DF8010036B242F2107096FB98
:10341000F0F100FB11604FF47A7190FBF1F08DF840
:10342000020036B24FF47A7096FBF0F100FB1160A7
:10343000642190FBF1F08DF8030036B2642096FB16
:10344000F0F100FB11600A2190FBF1F08DF804000F
:1034500036B20A2096FBF0F100FB11608DF80500F2
:103460000027FFB2062F80F2848000A8FFB23856F2
:10347000002816D001281CD0022822D0032828D0EA
:1034800004282ED0052834D006283AD0072840D06A
:10349000082846D009284CD02B285AD02D2850D0A7
:1034A0005FE035A22900C9B22000C0B2FFF75AFF81
:1034B00057E034A22900C9B22000C0B2FFF752FF82
:1034C0004FE031A22900C9B22000C0B2FFF74AFF85
:1034D00047E02FA22900C9B22000C0B2FFF742FF87
:1034E0003FE02CA22900C9B22000C0B2FFF73AFF8A
:1034F00037E029A22900C9B22000C0B2FFF732FF8D
:103500002FE026A22900C9B22000C0B2FFF72AFF8F
:1035100027E023A22900C9B22000C0B2FFF722FF92
:103520001FE020A22900C9B22000C0B2FFF71AFF95
:1035300017E01DA22900C9B22000C0B2FFF712FF98
:103540000FE01AA22900C9B22000C0B2FFF70AFF9B
:1035500007E017A22900C9B22000C0B2FFF702FF9E
:10356000FFE70A34E4B2962C01D1142004007F1C3A
:1035700077E7F7BD00000000300000000818FE43A8
:103580001018FE4331000000320000001418FE4302
:103590003300000034000000350000003600000059
:1035A0003700000038000000390000002D00000046
:1035B0002B0000000418FE430C18FE43B04A000024
:1035C000B4690000C065000070B504000D0016006D
:1035D0004FF480712000C0B200F08EF86DB2002D63
:1035E00011D14348E4B2611150F821004049E4B2DE
:1035F000621151F822104969012214F01F039A4008
:103600009143416136E03A48E4B2611150F821003B
:103610003749E4B2621151F822104969012214F0CD
:103620001F039A4011434161F6B2002E11D1304878
:10363000E4B2611150F821000068012114F01F026A
:10364000914088432A49E4B2621151F8221008607F
:1036500010E02748E4B2611150F821000068012110
:1036600014F01F02914008432149E4B2621151F85D
:103670002210086070BD10B504001D48E4B261114D
:1036800050F82100406914F01F010200CA40D00721
:1036900003D47A21174800F09CF81548E4B2611170
:1036A00050F82100012114F01F029140C16010BDAB
:1036B00010B504000E48E4B2611150F821004069D1
:1036C00014F01F010200CA40D00703D58A2109481F
:1036D00000F07FF80648E4B2611150F8210000695B
:1036E00014F01F010200CA4012F0010010BD0000DA
:1036F000580CFF1FBC67000010B4294A12684FF431
:103700000073C0B24409A3401A43254B1A60254AEE
:10371000C0B2431152F82320012310F01F04A3402C
:10372000C2F8A0301F4AC0B2431152F82320C0B2E1
:1037300010F01F0342F8231010BC704710B4184A51
:1037400012684FF40073C0B24409A3401A43144BEB
:103750001A60144AC0B2431152F82320012310F01A
:103760001F04A340C2F8A03031F4E0610D4AC0B29A
:10377000431152F82320C0B210F01F0352F8232047
:1037800012F4E0621143074AC0B2431152F82320F9
:10379000C0B210F01F0342F8231010BC70470000A5
:1037A00038800440B40CFF1FDFF800F05D0DFF1FF0
:1037B000DFF800F0970DFF1FBFF34F8F55480068EB
:1037C00010F4E0605449084352490860BFF34F8F3A
:1037D000FEE738B504000D00002000F0ADF82A0027
:1037E00021004E4800F0E0F8002000F0C2F84C48FC
:1037F00000684FF47A7101FB00F1032000F01CF91E
:10380000EDE738B504000D00210049B2042000F0B6
:103810007DFA200032BD10B50024052000F090FA9A
:10382000052000F0C3FA002855D1002000F084F8EC
:10383000052000F0BBFA012801D10120040000207E
:1038400000F097F8374800F0AFF8354800684FF4BB
:10385000FA7101FB00F1032000F0EEF8E4B2012C54
:10386000E6D1052000F0A2FA0028E1D1052000F001
:103870009DFA00280BD1002000F07BF82848006852
:10388000642101FB00F1032000F0D6F8EEE70520EB
:1038900000F08CFA01280BD1002000F06AF82048D3
:1038A0000068322101FB00F1032000F0C5F8EEE7CB
:1038B0001D4800F079F8FFF777FF19480068642188
:1038C00001FB00F1032000F0B7F80020FFF770FFC4
:1038D000FFF772FFACE710BD10B514480468012073
:1038E00000F02AF8012000F044F81148E4B20F215A
:1038F00001FB0402E4B221000E4800F055F808482C
:1039000000684FF47A7101FB00F1032000F094F895
:10391000E8E700000CED00E00400FA05EC680000A8
:103920001410FF1FA06900002069000004ED00E0F2
:103930004405FF1F4867000010B5040064B2042C62
:1039400007DA01220121174864B2205CFFF73CFE30
:103950000EE0042004002000441E40B2002807D0DE
:10396000012201210F4864B2205CFFF72DFEF2E72F
:1039700010BD10B5040064B2042C05DA094864B225
:10398000205CFFF778FE0CE0042004002000441EB9
:1039900040B2002805D0034864B2205CFFF76BFEFC
:1039A000F4E710BDE80CFF1F0EB400B582B003A908
:1039B0000091024600AB0121034878440A30FCF72D
:1039C0002BFD06BC5DF810FBB52F000038B50400D8
:1039D0000D00002D03D122214348FFF7FAFE434892
:1039E000006850F400004149086000204049086028
:1039F000681E404964B2220150503E4864B210EB48
:103A00000410C06850F001003A4964B211EB04118F
:103A1000C860384864B210EB041080684008400069
:103A2000344964B211EB041188600320314964B257
:103A300011EB0411886031BD38B504000D00002D74
:103A400003D145212848FFF7C4FE2848006850F4F8
:103A50000000264908602648006880088000244944
:103A60000860244864B210EB0410806840084000ED
:103A7000204964B211EB04118860681E1D4964B2CC
:103A8000220150501B4864B210EB0410C06850F083
:103A90000100184964B211EB0411C860154864B202
:103AA00010EB0410806840084000124964B211EB2A
:103AB0000411886001200F4964B211EB0411886081
:103AC0000C4864B210EB0410C068C007F8D5094870
:103AD00064B210EB0410C06850F00100054964B2F4
:103AE00011EB0411C86031BD606800003C800440E7
:103AF00000700340007103402DE9F84304000D00FD
:103B000064B2002C08D0022C2CD018D3042C4FD037
:103B10003BD3052C5FD071E0DFF80C02006850F455
:103B20008060DFF8041208604FF440713020FFF726
:103B3000E3FD4FF440713120FFF7DEFD5EE0DFF87A
:103B4000E801006850F40060DFF8DC1108604FF411
:103B500040714320FFF7D0FD4FF440714420FFF740
:103B6000CBFD4BE0DFF8C001006850F48050DFF877
:103B7000B81108604FF440716320FFF7BDFD4FF4AA
:103B800040716220FFF7B8FD38E0DFF89C01006863
:103B900050F40050DFF8901108604FF4407150204D
:103BA000FFF7AAFD4FF440715120FFF7A5FD25E076
:103BB000DFF87801006850F48060DFF87011086069
:103BC0004FF440719920FFF797FD4FF44071982012
:103BD000FFF792FD12E0DFF85401006850F4006036
:103BE000DFF8481108604FF440718920FFF784FD29
:103BF0004FF440718820FFF77FFDFFE7DFF83001C9
:103C000064B250F82400C07810F0F300DFF82011FF
:103C100064B251F82410C870DFF8140164B250F88F
:103C200024008078DFF8081164B251F824108870FD
:103C300064B2002C02D064B2012C07D1DFF8F4008A
:103C400000684FF47A714843814606E0DFF8E800E7
:103C500000684FF47A71484381462801B9FBF0F0BF
:103C60000600B6B2B6F5005F02DB41F6FF70060053
:103C7000B9FBF5F0B6B2B0EB06100700BFB2202FCB
:103C800003DBDC212D48FFF7A4FD294864B250F87E
:103C90002400007810F0E0008046C6F3042050EACB
:103CA0000800234964B251F824100870204864B217
:103CB00050F8240046701E4864B250F82400807A00
:103CC00010F0E000804617F01F0050EA0800184985
:103CD00064B251F824108872154864B250F8240078
:103CE000007C50F08800124964B251F82410087426
:103CF0000F4864B250F82400C07850F00C000C4912
:103D000064B251F82410C870BDE8F183084A40B28B
:103D100052F8202012791206F8D5054A40B252F81E
:103D20002020D17170470000348004402880044076
:103D3000C80CFF1F0C10FF1F1410FF1FF4670000BA
:103D400010B5040064B2082C0DDA002200212748C7
:103D500064B2205CFFF738FC0321244864B2205C85
:103D6000FFF7ECFC14E0082004002000441E40B2E1
:103D700000280DD0002200211C4864B2205CFFF70F
:103D800023FC0321194864B2205CFFF7D7FCECE761
:103D900010BD10B50400154864B2205CFFF788FC24
:103DA000002801D1002000E0012010BD10B5040062
:103DB000200040B2FFF7EDFF002815D10C48006845
:103DC0000A2101FB00F10320FFF736FE200040B27C
:103DD000FFF7DFFF002807D1200040B2FFF7D9FF2F
:103DE0000028F9D0002000E0012010BDE00CFF1FEA
:103DF0001410FF1F80B5012000F00AFCDFF86015E9
:103E00000860022000F004FCDFF85815086001206B
:103E100000F00CFC022000F009FCDFF8440500680B
:103E2000FB2803DBFA20DFF838150860DFF83405DB
:103E30000068FB2803DBFA20DFF828150860DFF8AC
:103E40002805006850F00200DFF81C150860DFF854
:103E50001805006850F00400DFF80C150860DFF862
:103E600000050068DFF804150860DFF8F804006852
:103E7000DFF8FC14086001BD38B53420FFF718FCEA
:103E8000012809D13520FFF713FC012804D1DFF800
:103E9000E404DFF8E41408603420FFF709FC01288B
:103EA00009D13520FFF704FC002804D1DFF8CC0449
:103EB000DFF8C41408603420FFF7FAFB002809D1AA
:103EC0003520FFF7F5FB012804D1DFF8B404DFF853
:103ED000A81408603420FFF7EBFB002809D1352037
:103EE000FFF7E6FB002804D1DFF89804DFF8881418
:103EF0000860DFF86C040068FDF7F8FBDFF8882441
:103F0000DFF88834FDF7D0F904000D00DFF85C0419
:103F10000068FDF7EBFBDFF87024DFF87434FDF781
:103F2000C3F922002B00FDF7F9FCFEF7FDFEDFF8D8
:103F300064140860DFF82C040068FDF7D7FBDFF895
:103F40004824DFF84834FDF7AFF904000D00DFF82E
:103F500020040068FDF7CAFBDFF82C24DFF83034BA
:103F6000FDF7A2F922002B00FDF7D8FCFEF7DCFEDE
:103F7000DFF824140860DFF824040068012804D066
:103F8000DFF81C040068012818D1DFF8EC03016891
:103F9000DFF81004FEF77CFF00F06CFBDFF808147C
:103FA0000860DFF8D4030168DFF8F803FEF770FF5C
:103FB00000F060FBDFF8F4130860BBE0DFF8DC031F
:103FC0000068DFF8DC1309680843002840F0B2807D
:103FD000DFF8DC030068DFF8DC1300F06DFB20D8AD
:103FE000DFF8CC030068DFF8D013FEF771FD18D2BC
:103FF000DFF884030168DFF8C403FEF749FF00F02F
:1040000039FBDFF8A4130860DFF86C030168DFF800
:10401000AC03FEF73DFF00F02DFBDFF890130860C6
:1040200088E0DFF88C030068DFF88C1300F044FBB5
:1040300040D8DFF87C030068DFF88413FEF748FD02
:1040400038D2DFF834030068FEF746FE04000D00A6
:10405000DFF85C030168DFF85C03FEF719FFFEF789
:104060003BFEC94ADFF85C33FDF71EF902000B0086
:1040700020002900FDF752FBFDF70CFBCA49086040
:10408000BD480068FEF728FE04000D00C84801681E
:10409000C848FEF7FDFEFEF71FFEBB4AC94BFDF701
:1040A00003F922002B00FDF739FCFDF7F3FABF49B5
:1040B00008603FE0BE480068BE49FEF709FD39D2FE
:1040C000BB480068C04900F0F7FA33D8AA48006836
:1040D000FEF702FE04000D00B5480168BB48FEF77C
:1040E000D7FEFEF7F9FDA84AB64BFDF7DDF8020052
:1040F0000B0020002900FDF711FBFDF7CBFAAA49C0
:1041000008609D480068FEF7E7FD04000D00A84820
:104110000168AE48FEF7BCFEFEF7DEFD9A4AA94BE9
:10412000FDF7C2F822002B00FDF7F8FBFDF7B2FA0D
:104130009E490860A6480068012801D100F001F9F5
:1041400031BD2DE9F047A34C5FF081455FF080461B
:10415000A04F5FF081485FF080499348006800F00D
:10416000BDFA8C490968FEF7C5FC9B4908608F4879
:10417000006800F0B3FA88490968FEF7BBFC97496C
:1041800008609548006896490968FEF7B3FC21006D
:10419000FEF712FE8246904800682900FEF70CFEEA
:1041A0005146FEF775FE82468D4801685FF08040FB
:1041B000FEF702FE010088480068FEF79BFC894973
:1041C0000968FEF765FE3100FEF7F6FD5146FEF781
:1041D0005FFE00F04FFA8449086084480068824915
:1041E00009680818814908607C48006880490968A6
:1041F000FEF780FC3900FEF7DFFD82467748006855
:104200004146FEF7D9FD5146FEF742FE8246784808
:1042100001685FF08040FEF7CFFD01006F48006845
:10422000FEF768FC73490968FEF732FE4946FEF75F
:10423000C3FD5146FEF72CFE00F01CFA6E490860E3
:104240006E4800686C49096808186C490860644841
:104250000068644908606048006861490860644813
:104260000068644908605D480068614908605F480B
:104270000068002802D500205C4908605B4800689F
:1042800041F65931884203DB41F6583057490860FE
:104290005A480068002802D500205849086057484D
:1042A000006841F65931884203DB41F658305349E2
:1042B0000860BDE8F08780B5FFF79CFDFFF7DCFDE7
:1042C000FFF73FFF4948006800280AD40022002178
:1042D000012000F068FB454802680121012000F040
:1042E00062FB4248006800280BD540480068424203
:1042F0000021012000F057FB00220121012000F0E5
:1043000052FB3E48006800280AD400220021022007
:1043100000F049FB394802680121022000F043FB0C
:104320003648006800280BD5344800684242002116
:10433000022000F038FB00220121022000F033FBB4
:1043400001BD002018490860002018490860704726
:1043500080B52B4802680721002000F024FB01BD36
:10436000380FFF1F3C0FFF1F0C800040400FFF1F46
:10437000440FFF1F00002C42500FFF1F000020427F
:104380000000144200000C429A9999999999E93FCA
:104390009999C93F5C0FFF1F600FFF1FA40FFF1FFC
:1043A000AC0FFF1F000040C0480FFF1F4C0FFF1F46
:1043B000BC0FFF1F000020C1010020410000404051
:1043C00001005C429999B93F00005CC200002041A5
:1043D000C40FFF1F0000A042640FFF1F700FFF1FDC
:1043E000680FFF1F6C0FFF1F540FFF1F300FFF1FC1
:1043F000740FFF1F780FFF1F580FFF1F340FFF1F91
:104400001004FF1F012110F01F029140DFF8342239
:1044100040B2430942F8231070472DE9F8430500E4
:104420000E00170098465FF000095FFA89F9B9F1AC
:10443000000F01D101240EE05FFA89F9B9F1010FF3
:1044400001D1022407E05FFA89F9B9F1020F01D125
:10445000042400E01024B7F5004F02D347F6FF70A4
:1044600007007F486DB240F825707748006850F02B
:104470000200754908607548006850F002007349F1
:104480000860784872496DB26A01505075486DB243
:10449000690101F1804111F51041086100206DB200
:1044A000690101F1804111F51041888000206DB251
:1044B000690101F1804111F5104188825FFA89F9A3
:1044C0005FEA092010F4E0605FFA89F919F007014A
:1044D00008436DB2690101F1804111F51041C880B6
:1044E00038004004400C6DB2690101F1804111F5C2
:1044F0001041C8823800C005C00D6DB2690101F1DC
:10450000804111F51041C8835248006830F08000A6
:1045100050490860E4B26DB2680100F1804010F5C6
:104520001040846078426DB2690101F1804111F55B
:104530001041C86000206DB2690101F1804111F5A0
:10454000104188610A206DB2690101F1804111F5C5
:1045500010418883F6B27009313050F080003E4936
:104560006DB26854404800684FF40071F6B27209A9
:10457000914008433C4908603C48F6B2711150F83C
:1045800021003A49F6B2721151F82210496901220C
:1045900016F01F039A40914341613548F6B27111FC
:1045A00050F82100F6B216F01F015FFA88F818F0F3
:1045B00003025FFA88F85FEA9813DBB253EA02421B
:1045C00052F4807240F82120F6B2002E01D0012072
:1045D00000E000202549F6B2721151F82210234A5A
:1045E000F6B2731152F823205269012313FA00F036
:1045F00032EA00004861194800680121A9400843D7
:1046000016490860280040B2FFF7FCFEBDE8F183C0
:104610000100134849B250F8210049B24A0102F1A1
:10462000804212F51042D28A801A70470C4940B27B
:1046300051F8201040B2420102F1804212F51042BE
:10464000D182704700E100E0408004403C8004409B
:104650000090004000800040001002400C800040AC
:10466000C80FFF1F0C00044038800440580CFF1F87
:10467000B40CFF1F4100090E7F3915D4D1F11F0181
:1046800014D4400007D2C00140F00040C84048BFE9
:104690006FF000407047C00140F00040C8404CBF80
:1046A0004FF00040404270470020704700424FF0FA
:1046B000004058BFC04370474FF0807C1CEB400F58
:1046C00094BF1CEB410F05E040EA010C5FEA4C0C83
:1046D00001D28142704718BF88427047002840F1DC
:1046E0000780F446404200F003F850F00040604775
:1046F0000AD0B0FA80F18840D1F19D01C9050206C7
:1047000072F1004241EB10207047000038B5040000
:104710000D0064B2002C03D0022C66D049D380E097
:10472000DFF87803006850F08070DFF870130860DD
:104730006DB2002D0BD0022D15D00ED3042D1ED03E
:1047400017D3062D27D020D3072D2AD02FE04FF4E2
:1047500080614120FEF7D0FF2AE04FF44071042031
:10476000FEF7CAFF24E04FF440710520FEF7C4FFB6
:104770001EE04FF440710620FEF7BEFF18E04FF434
:1047800040710720FEF7B8FF12E04FF4806165200A
:10479000FEF7B2FF0CE04FF480616620FEF7ACFF3D
:1047A00006E04FF480616720FEF7A6FF00E038E0E6
:1047B00037E0DFF8E802006850F00070DFF8DC1244
:1047C00008606DB2002D02D0012D06D00BE04FF431
:1047D00040710820FEF790FF06E04FF44071092079
:1047E000FEF78AFF00E01CE01BE0DFF8B40200687F
:1047F00050F08070DFF8A81208606DB2002D02D072
:10480000012D06D00BE04FF440710A20FEF774FF33
:1048100006E04FF440710B20FEF76EFF00E000E071
:10482000FFE731BD2DE9F84F04000D0016001F0011
:1048300064B2002C0ED064B2012C02D064B2022CFF
:1048400002D16DB2022D05DB4FF4C271DFF85402C4
:10485000FEF7BFFF290049B2200040B2FFF756FF24
:10486000DFF8440200684FF47A71484380465FEAFB
:104870001840B0FBF6F08146002082461FFA89F905
:10488000484650FA0AF0012802DB1AF1010AF5E75E
:104890005FFA8AFABAF1080F05DB40F29F11DFF8E0
:1048A0000402FEF796FF404630FA0AF0B0FBF6F03D
:1048B000814664B2002C03D0022C19D00CD323E023
:1048C0001FFA89F919F1010000FB07F042F210719B
:1048D000B0FBF1F0834617E01FFA89F919F10100E6
:1048E00000FB07F042F21071B0FBF1F083460BE0E1
:1048F0001FFA89F919F1010000FB07F042F210716B
:10490000B0FBF1F08346FFE7DFF8A00164B250F896
:1049100024006DB210EBC500DFF8901164B251F8BD
:1049200024106DB211EBC501C96831F00401C160FA
:10493000DFF8780164B250F824006DB210EBC500C6
:104940002821C1605FFA8AFA1AF0070050F00800C7
:10495000DFF8581164B251F8241008601FFA89F981
:10496000DFF8480164B250F82400C0F80890002035
:10497000DFF8381164B251F82410C864DFF82C0154
:1049800064B250F824006DB210EBC5001FFA8BFB27
:10499000C0F810B00020DFF8141164B251F82410F0
:1049A0004860BDE8F18F2DE9F04104000D001600CC
:1049B0005FF0000864B2002C0ED064B2012C02D06B
:1049C00064B2022C02D16DB2022D05DB40F2E3117C
:1049D000DFF8D000FEF7FDFE64B2002C03D0022CFD
:1049E00017D00BD320E042F21170864205D340F27B
:1049F000E911DFF8B000FEF7ECFE15E042F21170AD
:104A0000864205D340F2ED11DFF89800FEF7E1FE93
:104A10000AE042F21170864205D340F2F111DFF84C
:104A20008400FEF7D6FEFFE7DFF8800064B250F89E
:104A3000240080688046B8F1000FF5D064B2002CE5
:104A400003D0022C15D00AD31DE018F1010000FBA1
:104A500006F042F21071B0FBF1F0070013E018F11C
:104A6000010000FB06F042F21071B0FBF1F007000C
:104A700009E018F1010000FB06F042F21071B0FBF2
:104A8000F1F00700FFE7DFF8240064B250F82400DB
:104A90006DB210EBC5000761BDE8F0813C800440B9
:104AA00030800440006700001410FF1F4C0CFF1FF3
:104AB00000000000000000000000000000000000F6
:104AC000000000F80000000000000033300000008B
:104AD00000100C06100C0600000000000000000092
:104AE00040C07840C0784000043F04043F04040004
:104AF000007088FC08300000001820FF211E000014
:104B0000F008F000E018000000211C031E211E0028
:104B100000F00888700000001E21232419272110AE
:104B200010160E0000000000000000000000000051
:104B3000000000E0180402000000000718204000F8
:104B400000020418E00000000040201807000000E8
:104B5000404080F0804040000202010F010202004C
:104B6000000000F0000000000101011F0101010030
:104B7000000000000000000080B070000000000095
:104B8000000000000000000000010101010101011E
:104B900000000000000000000030300000000000B5
:104BA000000000008060180400601806010000008A
:104BB00000E010080810E000000F102020100F0087
:104BC000001010F8000000000020203F202000000E
:104BD0000070080808887000003028242221300066
:104BE00000300888884830000018202020110E006E
:104BF0000000C02010F8000000070424243F240017
:104C000000F80888880808000019212020110E00EB
:104C100000E0108888180000000F112020110E00FD
:104C200000380808C83808000000003F00000000F5
:104C30000070880808887000001C222121221C00B6
:104C400000E010080810E0000000312222110F00DF
:104C5000000000C0C0000000000000303000000074
:104C600000000080000000000000806000000000E4
:104C700000008040201008000001020408102000FD
:104C80004040404040404000040404040404040048
:104C900000081020408000000020100804020100DD
:104CA000007048080808F0000000003036010000DD
:104CB000C030C828E810E0000718272423140B0090
:104CC0000000C038E0000000203C2302022738200A
:104CD00008F8888888700000203F202020110E00EE
:104CE000C0300808080838000718202020100800E5
:104CF00008F808080810E000203F202020100F00CE
:104D000008F88888E8081000203F20202320180099
:104D100008F88888E8081000203F20000300000001
:104D2000C03008080838000007182020221E0200A2
:104D300008F808000008F808203F210101213F2061
:104D4000000808F8080800000020203F202000008C
:104D500000000808F8080800C08080807F0000007C
:104D600008F888C028180800203F200126382000B5
:104D700008F8080000000000203F2020202030001C
:104D800008F8F800F8F80800203F003F003F200036
:104D900008F830C00008F808203F200007183F003E
:104DA000E01008080810E0000F10202020100F006D
:104DB00008F808080808F000203F21010101000060
:104DC000E01008080810E0000F18242438504F00A5
:104DD00008F8888888887000203F2000030C302065
:104DE00000708808080838000038202121221C00A3
:104DF000180808F8080818000000203F20000000EC
:104E000008F808000008F808001F202020201F00D4
:104E10000878880000C83808000007380E01000034
:104E2000F80800F80008F800033C0700073C0300FE
:104E3000081868808068180820302C03032C302064
:104E40000838C800C83808000000203F20000000D3
:104E500010080808C838080020382621202018002B
:104E6000000000FE020202000000007F40404000FF
:104E7000000C30C000000000000000010638C00037
:104E800000020202FE000000004040407F000000DF
:104E90000000040202020400000000000000000004
:104EA0000000000000000000808080808080808002
:104EB00000020204000000000000000000000000EA
:104EC00000008080808000000019242222223F20E0
:104ED00008F8008080000000003F112020110E0023
:104EE0000000008080800000000E112020201100B2
:104EF000000000808088F800000E112020103F2064
:104F00000000808080800000001F222222221300E7
:104F1000008080F0888888180020203F2020000032
:104F20000000808080808000006B949494936000E7
:104F300008F8008080800000203F210000203F20F2
:104F400000809898000000000020203F20200000F2
:104F5000000000809898000000C08080807F0000E2
:104F600008F8000080808000203F24022D302000BF
:104F7000000808F8000000000020203F202000006A
:104F80008080808080808000203F20003F20003F84
:104F90008080008080800000203F210000203F2092
:104FA0000000808080800000001F202020201F0043
:104FB000808000808000000080FFA12020110E0072
:104FC0000000008080808000000E112020A0FF8063
:104FD000808080008080800020203F212000010010
:104FE0000000808080808000003324242424190065
:104FF000008080E0808000000000001F2020000072
:105000008080000000808000001F202020103F20B2
:10501000808080000080808000010E300806010042
:1050200080800080008080800F300C030C300F00E7
:1050300000808000808080000020312E0E31200012
:10504000808080000080808080818E701806010042
:1050500000808080808080000021302C2221300060
:1050600000000000807C020200000000003F404081
:1050700000000000FF00000000000000FF00000032
:105080000002027C800000000040403F0000000061
:1050900000060101020204040000000000000000FC
:1050A00080B50020DFF8F41408600120DFF8F01468
:1050B00008600120DFF8EC140860DFF8EC040088D9
:1050C000DFF8E8140988401AFFF708FBDFF8E0145E
:1050D0000860DFF8D4040088DFF8D014098811FADA
:1050E00080F0401CFFF7FAFADFF8C8140860DFF818
:1050F000C804008821280FDADFF8C0040068FDF733
:10510000EBFDDFF8BC24DFF8BC34FCF7CDF8FDF78D
:105110000BFEDFF89C140860DFF894040068DFF8E9
:1051200094140968FDF75AFDDFF89C140860DFF855
:1051300078040088DFF8741409880818DFF87814F8
:1051400009880818DFF884140880DFF86C040088E8
:10515000DFF854140988401ADFF874140880DFF867
:1051600058040088DFF844140988401ADFF86414F2
:105170000880DFF834040088DFF83C14098888428E
:1051800006D2DFF824040088DFF84C14088005E01C
:10519000DFF824040088DFF840140880DFF83804C2
:1051A0000088DFF808140988884206D2DFF828044E
:1051B0000088DFF82414088005E0DFF8F003008899
:1051C000DFF814140880DFF800040168DFF80C042D
:1051D000FDF7F2FDFFF74EFADFF804140860002136
:1051E000122000F03CFB042190FBF1F01F384042FC
:1051F000DFF8F0130860DFF8EC030068801CDFF8CC
:10520000E8130860DFF8B00300885B281DDBDFF8D7
:10521000980300883D2818DBDFF8900300883D28BC
:1052200013DBDFF884030088DFF88C1309888842D9
:105230000BD2DFF878030088DFF87C1309888842F6
:1052400003D20120DFF854130860DFF85C03008804
:105250002D2804DBDFF8540300882D2803DA022010
:10526000DFF838130860DFF834030068002803D043
:10527000022822D010D330E0DFF864030068FCF786
:1052800035FA0022DFF86433FCF70EF8FCF702FA77
:10529000DFF84C13086020E0DFF844030068FCF7F7
:1052A00025FADFF84C23DFF84C33FBF7FDFFFCF762
:1052B000F1F9DFF82C1308600FE0DFF82403006831
:1052C000FCF714FADFF8F822DFF8F832FBF7ECFF0E
:1052D000FCF7E0F9DFF808130860DFF81C0300684A
:1052E000DFF8181309680843002831D1B74800884F
:1052F0005B282DDBB5480088962829DAAD48006880
:10530000DFF8FC12FDF7E4FB22D2AB4800881A2834
:105310001EDBA948008837281ADAA3480088A64966
:105320000988884214D2A1480088A3490988884284
:105330000ED2A94800881A280ADBB248008805283E
:1053400006DAA9480068002802D10120AB490860AC
:10535000AA48006801280ED1AB480068401CAA4941
:105360000860A9480068332805DB0020A3490860CD
:105370000020A5490860A0480068A44909680843BE
:10538000002812D191480088B0F5917F0DDD924838
:105390000088292809DB88480088832805DB01204C
:1053A00095490860012099490860934800680128E0
:1053B0000FD197480068401C9549086094480068E0
:1053C000B0F5AF7F05DD00208B49086000209049D3
:1053D0000860774800687949086001BD10B58D48BC
:1053E0008D490860FFF75CFE7E480068FFF776F99C
:1053F000020014007A480068FFF770F901002200EB
:105400008648FDF753FBFDF767FC5FF03332844BB2
:10541000FBF74AFFFDF788FC82490860774800687F
:10542000012806D180488149086000205D49086054
:105430003BE072480068002837D164480088102893
:1054400016DB67480068FFF749F976490968FDF7F8
:10545000B3FC040063480068FFF740F96E4909682F
:10546000FDF7AAFC2100FDF713FD704908601CE060
:1054700056480088102810DA5448008806280CDBAB
:105480006B480068B0F5EB7F03DD6748674908604B
:105490000BE068486549086007E04C48008806282A
:1054A00003DA6548006861490860534800680128CC
:1054B00002D100203A4908605C4800685F49FFF764
:1054C000FBF803D858485949086008E05748006875
:1054D0005849FDF7FDFA02D256485449086053482E
:1054E00001685748FDF7D4FCFFF7C4F85549086038
:1054F0003B480068544908604C4800684E490860C1
:10550000504800684A49086010BD80B53720FEF752
:10551000CFF800281CD14D48B0F9002012B200216C
:105520001E20FDF754FF2E48026812B202211E20F1
:10553000FDF74DFF4448026812B204211E20FDF71A
:1055400046FF2948026812B206211E20FDF73FFFE0
:105550003720FEF7ADF801281FD11348B0F900201D
:1055600012B200211E20FDF732FF1348B0F90020CF
:1055700012B202211E20FDF72AFF0C48B0F90020CC
:1055800012B204211E20FDF722FF1E48B0F90020B0
:1055900012B206211E20FDF71AFF01BD9C0FFF1F4E
:1055A0003800FE433C00FE436A10FF1F6E10FF1FD1
:1055B000900FFF1F8C0FFF1F6C10FF1F980FFF1F16
:1055C000CDCCCCCCCCCCF43F940FFF1F7210FF1F7E
:1055D0007610FF1F7810FF1F7410FF1F000020427D
:1055E000840FFF1FA00FFF1FB80FFF1F0000F03F29
:1055F0009A9999999999E93FAC0FFF1FA40FFF1F42
:105600000000C8427010FF1FB00FFF1FA80FFF1F40
:10561000B40FFF1F0000C040800FFF1F1804FF1FC2
:105620003333F33F7C0FFF1F00005C42BC0FFF1FB2
:105630001404FF1F00005CC2C00FFF1F01005C428A
:105640000000EB431004FF1F880FFF1F6810FF1FAF
:1056500038B5040064B26511EDB2002D02D0012D01
:1056600011D021E0A348006850F00060A149086013
:10567000A148006830F090009F4908609E4800688B
:105680009D49086014E09D48006850F000609B4907
:1056900008609948006830F41040974908609648BF
:1056A00000689549086003E033219548FEF791F8BA
:1056B00064B22000002800F08980012800F0868074
:1056C000032800F0838008284ED0092851D00A28EA
:1056D00054D00B2857D00C285AD00D285DD00E2856
:1056E00060D00F2863D0102870D0112864D0122801
:1056F00067D013286AD0142868D01A2866D01D28CD
:1057000064D01E2862D0202861D021285FD02328B1
:105710005DD024285CD025285FD0262862D0272899
:1057200065D0282868D029286BD02A286ED02B284D
:1057300071D02C2874D02D2877D02E287AD02F28FD
:105740007DD0302800F0858031287DD0322800F0CF
:10575000808033287DD034287BD03A2879D03D28EA
:1057600077D03E2875D075E000212020FDF7C4FFDA
:1057700074E000212120FDF7BFFF6FE0002107202A
:10578000FDF7BAFF6AE000210820FDF7B5FF65E0EC
:1057900000212220FDF7B0FF60E000212320FDF76B
:1057A000ABFF5BE000214020FDF7A6FF56E00021A3
:1057B0004120FDF7A1FF51E000219820FDF79CFF5B
:1057C0004CE000219920FDF797FF47E046E045E0D7
:1057D00000218020FDF790FF40E000218120FDF7AF
:1057E0008BFF3BE000218220FDF786FF36E00021A1
:1057F0008320FDF781FF31E000212020FDF77CFFB1
:105800002CE000212120FDF777FF27E00021242054
:10581000FDF772FF22E000212520FDF76DFF1DE05E
:1058200000212620FDF768FF18E000212720FDF762
:1058300063FF13E000212A20FDF75EFF0EE0002148
:105840002B20FDF759FF09E000211120FDF754FF3F
:1058500004E003E09A212A48FDF7BBFF31BDF8B50B
:1058600004000D0064B266110027290049B220002F
:1058700040B200F01CF8234876B250F826000068C9
:105880000006F8D51F4876B250F8260000690700D8
:105890001C4876B250F82600006830F080001949A4
:1058A00076B251F826100860380080B2F2BD30B4EC
:1058B00040B2421110F01F0349B28C0014F00C04E6
:1058C00054F050040F4D52B255F82250AC600424ED
:1058D0000C4D52B255F82250EC60DBB213F01F04AD
:1058E00054F04004074D52B255F822502C6030BCA1
:1058F000704700003C800440188004403080044021
:105900002C6800003C05FF1F10B50024322C3CDA47
:1059100002210920FFF7A3FFDFF88013088002218E
:105920000C20FFF79CFFDFF87413488002210D2044
:10593000FFF795FFDFF864138880DFF860030088C5
:10594000DFF858134988884206D2DFF850034088B0
:10595000DFF84C13088005E0DFF840030088DFF82B
:1059600040130880DFF834038088DFF83413098897
:10597000884204D2CA480088C949088003E0C74861
:105980008088C7490880641CC0E710BD70B58CB022
:1059900002212B20FFF763FFC2490880002004008A
:1059A000A4B2052C1BDA02210920FFF758FF02A937
:1059B000A4B221F8140002210C20FFF750FF02A925
:1059C000A4B211EB4401488102210D20FFF747FFEB
:1059D00002A9A4B211EB44018882641CE0E7002014
:1059E0000400A4B2032C74DA00200500ADB2052D2A
:1059F0006DDA00200600B6B2ADB2D5F104008642E1
:105A000063DA02A8A4B20A2101FB0400B6B210EBCB
:105A10004600408802A9A4B20A2202FB0411B6B2D1
:105A200031F8161088424ED202A8A4B20A2101FB16
:105A30000400B6B202A9A4B20A2202FB0411B6B253
:105A400031F8161002AAA4B20A2303FB0422B6B24C
:105A500012EB46025288514020F8161002A8A4B258
:105A60000A2101FB0400B6B210EB460002A9A4B261
:105A70000A2202FB0411B6B211EB4601498802AAC0
:105A8000A4B20A2303FB0422B6B232F81620514016
:105A9000418002A8A4B20A2101FB0400B6B202A907
:105AA000A4B20A2202FB0411B6B231F8161002AAFF
:105AB000A4B20A2303FB0422B6B212EB46025288B8
:105AC000514020F81610761C95E76D1C8EE7641C7B
:105AD00087E700200400A4B2032C24DA02A8A4B2B1
:105AE0000A2101FB0400408802A9A4B20A2202FB99
:105AF00004118988081802A9A4B20A2202FB041121
:105B0000C98808180AA9A4B221F814000AA8A4B2E6
:105B100030F81400032190FBF1F000A9A4B221F8A1
:105B20001400641CD7E700200400A4B2032C1EDA82
:105B30005D48A4B210EB440040885B49A4B221F850
:105B400014005948A4B210EB440040895649A4B24D
:105B500011EB440108815448A4B210EB4400408A80
:105B60005149A4B211EB44010882641CDDE7002016
:105B70000400A4B2032C1BDA49480088022190FBE0
:105B8000F1F000A9A4B231F81410474AA4B212EB04
:105B9000C402D288891A884208DA4348A4B210EBBA
:105BA000C400C08800A9A4B221F81400641CE0E776
:105BB00000200400A4B2032C0ADA00A8A4B230F832
:105BC00014003949A4B211EBC401C880641CF1E788
:105BD00000200400A4B2042C1EDA344800883249A4
:105BE000A4B231F814100818304908802F484088B2
:105BF0002D49A4B211EB4401098908182B494880AA
:105C00002A4880882849A4B211EB4401098A08185F
:105C100026498880641CDDE700200400A4B2032C20
:105C200011DA2248A4B230F81400042190FBF1F0FC
:105C30001F49A4B221F8140000201C49A4B221F885
:105C40001400641CEAE71A48008864214843144998
:105C5000098890FBF1F01749088015488088642175
:105C600048430F49098890FBF1F013490880104818
:105C70004088642148430A49098890FBF1F00F49A4
:105C8000088008480088642148430549098890FB3A
:105C9000F1F0044908800CB070BD0000280FFF1F10
:105CA0006810FF1F7010FF1F080FFF1F200FFF1F3E
:105CB000000FFF1F6A10FF1F6E10FF1F6C10FF1FE9
:105CC000DFF800F0B10EFF1FDFF8941340B231F897
:105CD000201040B20128C0F2698140B2112880F240
:105CE00065810022DFF87C331A7089B2312904DA29
:105CF0000022DFF870335A7076E089B2612904DA45
:105D00000122DFF860335A706EE089B2912904DA1B
:105D10000222DFF850335A7066E089B2C12904DAF2
:105D20000322DFF840335A705EE089B2F12904DAC9
:105D30000422DFF830335A7056E089B2B1F5907F13
:105D400004DC0522DFF81C335A704DE089B2B1F54E
:105D5000A87F04DC0622DFF80C335A7044E089B2D5
:105D6000B1F5C07F04DC0722DFF8F8325A703BE05F
:105D700089B2B1F5D87F04DC0822DFF8E8325A7026
:105D800032E089B2B1F5F07F03DC0922B54B5A70DD
:105D90002AE089B2B1F5047F03DC0A22B14B5A70C4
:105DA00022E089B2B1F5107F03DC0B22AD4B5A70B3
:105DB0001AE089B2B1F51C7F03DC0C22A94B5A70A2
:105DC00012E089B2B1F5287F03DC0D22A54B5A7091
:105DD0000AE089B2B1F5347F03DC0E22A14B5A7080
:105DE00002E00F229F4B5A7089B21A2903DA00226F
:105DF0009C4B9A7069E089B2332903DA0122994BEE
:105E00009A7062E089B24C2903DA0222954B9A70AB
:105E10005BE089B2652903DA0322924B9A7054E061
:105E200089B27E2903DA04228E4B9A704DE089B242
:105E3000972903DA05228B4B9A7046E089B2B02984
:105E400003DA0622874B9A703FE089B2C92903DA48
:105E50000722844B9A7038E089B2E22903DA0822DB
:105E6000804B9A7031E089B2FB2903DA09227D4B1D
:105E70009A702AE089B2B1F58A7F03DA0A22794B57
:105E80009A7022E089B2B1F5967F03DC0B22754B44
